{
  "_format": "hh-sol-artifact-1",
  "contractName": "Certificate",
  "sourceName": "contracts/Certificate.sol",
  "abi": [
    {
      "inputs": [],
      "stateMutability": "nonpayable",
      "type": "constructor"
    },
    {
      "anonymous": false,
      "inputs": [
        {
          "indexed": true,
          "internalType": "bytes32",
          "name": "certificateHash",
          "type": "bytes32"
        }
      ],
      "name": "CertificateIssued",
      "type": "event"
    },
    {
      "anonymous": false,
      "inputs": [
        {
          "indexed": true,
          "internalType": "bytes32",
          "name": "certificateHash",
          "type": "bytes32"
        }
      ],
      "name": "CertificateRevoked",
      "type": "event"
    },
    {
      "inputs": [
        {
          "internalType": "bytes32",
          "name": "certificateHash",
          "type": "bytes32"
        }
      ],
      "name": "issueCertificate",
      "outputs": [],
      "stateMutability": "nonpayable",
      "type": "function"
    },
    {
      "inputs": [],
      "name": "owner",
      "outputs": [
        {
          "internalType": "address",
          "name": "",
          "type": "address"
        }
      ],
      "stateMutability": "view",
      "type": "function"
    },
    {
      "inputs": [
        {
          "internalType": "bytes32",
          "name": "certificateHash",
          "type": "bytes32"
        }
      ],
      "name": "revokeCertificate",
      "outputs": [],
      "stateMutability": "nonpayable",
      "type": "function"
    },
    {
      "inputs": [
        {
          "internalType": "bytes32",
          "name": "certificateHash",
          "type": "bytes32"
        }
      ],
      "name": "verifyCertificate",
      "outputs": [
        {
          "internalType": "bool",
          "name": "",
          "type": "bool"
        }
      ],
      "stateMutability": "view",
      "type": "function"
    }
  ],
  "bytecode": "0x608060405234801561001057600080fd5b50336000806101000a81548173ffffffffffffffffffffffffffffffffffffffff021916908373ffffffffffffffffffffffffffffffffffffffff160217905550610664806100606000396000f3fe608060405234801561001057600080fd5b506004361061004c5760003560e01c8063850c1768146100515780638da5cb5b14610081578063a1f818241461009f578063c6cbc52a146100bb575b600080fd5b61006b600480360381019061006691906103f4565b6100d7565b604051610078919061043c565b60405180910390f35b610089610101565b6040516100969190610498565b60405180910390f35b6100b960048036038101906100b491906103f4565b610125565b005b6100d560048036038101906100d091906103f4565b61026f565b005b60006001600083815260200190815260200160002060009054906101000a900460ff169050919050565b60008054906101000a900473ffffffffffffffffffffffffffffffffffffffff1681565b60008054906101000a900473ffffffffffffffffffffffffffffffffffffffff1673ffffffffffffffffffffffffffffffffffffffff163373ffffffffffffffffffffffffffffffffffffffff16146101b3576040517f08c379a00000000000000000000000000000000000000000000000000000000081526004016101aa90610536565b60405180910390fd5b6001600082815260200190815260200160002060009054906101000a900460ff1615610214576040517f08c379a000000000000000000000000000000000000000000000000000000000815260040161020b906105a2565b60405180910390fd5b600180600083815260200190815260200160002060006101000a81548160ff021916908315150217905550807f615fe29dd761acef07dabe50d28b02874372a0a63ee7fa4221480b34b7ac14ba60405160405180910390a250565b60008054906101000a900473ffffffffffffffffffffffffffffffffffffffff1673ffffffffffffffffffffffffffffffffffffffff163373ffffffffffffffffffffffffffffffffffffffff16146102fd576040517f08c379a00000000000000000000000000000000000000000000000000000000081526004016102f490610536565b60405180910390fd5b6001600082815260200190815260200160002060009054906101000a900460ff1661035d576040517f08c379a00000000000000000000000000000000000000000000000000000000081526004016103549061060e565b60405180910390fd5b60006001600083815260200190815260200160002060006101000a81548160ff021916908315150217905550807f44d80a438cb4fa3b5aedbe551ce3d9382e37f446917b783e1dee70a03b4180e360405160405180910390a250565b600080fd5b6000819050919050565b6103d1816103be565b81146103dc57600080fd5b50565b6000813590506103ee816103c8565b92915050565b60006020828403121561040a576104096103b9565b5b6000610418848285016103df565b91505092915050565b60008115159050919050565b61043681610421565b82525050565b6000602082019050610451600083018461042d565b92915050565b600073ffffffffffffffffffffffffffffffffffffffff82169050919050565b600061048282610457565b9050919050565b61049281610477565b82525050565b60006020820190506104ad6000830184610489565b92915050565b600082825260208201905092915050565b7f4f6e6c7920746865206f776e65722063616e20706572666f726d20746869732060008201527f616374696f6e2e00000000000000000000000000000000000000000000000000602082015250565b60006105206027836104b3565b915061052b826104c4565b604082019050919050565b6000602082019050818103600083015261054f81610513565b9050919050565b7f436572746966696361746520616c7265616479206973737565642e0000000000600082015250565b600061058c601b836104b3565b915061059782610556565b602082019050919050565b600060208201905081810360008301526105bb8161057f565b9050919050565b7f4365727469666963617465206e6f7420666f756e642e00000000000000000000600082015250565b60006105f86016836104b3565b9150610603826105c2565b602082019050919050565b60006020820190508181036000830152610627816105eb565b905091905056fea2646970667358221220c6b88ffcede3c723b8e2861cd0e0d829211a95eafe698de1cb417aca8a9cc10f64736f6c63430008180033",
  "linkReferences": {},
  "deployedLinkReferences": {}
}